:1001FC00EFD3940540037F0122120026FED3940313
:10020C0040037F0222EF7041EE700B900001120050
:10021C003FF452935294120026B4010B9000011239
:10022C00003F4293F45294120026FEB4020A90004E
:10023C000112003F42934294EEB4030D9000011260
:10024C00003FFEF45293EE4294EF640170431200AF
:10025C0026FE700B90000112003FF452915292EE68
:10026C00B4010B90000112003F4291F45292120023
:10027C0026B4020A90000112003F429142921200F1
:10028C0026B4030D90000112003FFEF45291EE4291
:10029C0092EF64027043120026FE700B9000011264
:1002AC00003FF452955296EEB4010B9000011200EF
:1002BC003F4295F45296120026B4020A90000112A5
:1002CC00003F42954296120026B4030D9000011295
:1002DC00003FFEF45295EE4296EF64037043120019
:1002EC0026FE700B90000112003FF452B152B2EE98
:1002FC00B4010B90000112003F42B1F452B2120053
:10030C0026B4020A90000112003F42B142B2120020
:10031C0026B4030D90000112003FFEF452B1EE42E0
:10032C00B2EF64047043120026FE700B90000112B1
:10033C00003FF452B352B4EEB4010B900001120022
:10034C003F42B3F452B4120026B4020A90000112D8
:10035C00003F42B342B4120026B4030D90000112C8
:10036C00003FFEF452B3EE42B4EF6405704312004A
:10037C0026FF700B90000112003FF452C952CAEFD5
:10038C00B4010B90000112003F42C9F452CA120092
:10039C0026B4020A90000112003F42C942CA120060
:1003AC0026B4030D90000112003FFFF452C9EF4236
:0403BC00CA7F0022D2
:1007A700535443313546324B36305332205541523C
:1007B700543120546573742050726772616D6D6592
:0407C700210D0A00F6
:08087400022500000223000030
:030006008F9922AD
:1007CB00750904E4F508FB7A0079087F031201FC34
:1007DB007509FF7508037B007A0079087F01020118
:0107EB00FC11
:1007EC00E4F508F509750A01F50BF50C750D70F5B6
:0D07FC000E750F01FB7A007908FF02055A07
:10074800750840750902750D00750CC2750B0175A9
:100758000A00750F01E4F510751101F512F513F58E
:1007680014FB7A0079087F011203C07BFF7A0779AE
:04077800A702000EC6
:10070C00EFD3940440037F0122EF702D900002126E
:10071C00003FB40104D2A88002C2A89000011200CC
:10072C003FB40104D2B88002C2B8120026B401044E
:0C073C00D2888002C2887F00227F022247
:10084100E4F508750901750A01A2B233FF7B007A4C
:0608510000790802070C0B
:1008260020B2177F0A12085720B20C0526E526705B
:0B083600020525FF12000620B2FD2283
:030003000206CF23
:1006CF00C0E0C0F0C083C082C0D075D000C000C0F1
:1006DF0001C002C003C004C005C006C007B291121A
:1006EF000826D007D006D005D004D003D002D00101
:0D06FF00D000D0D0D082D083D0F0D0E03237
:03000B0002086781
:0D086700C0E00524E52470020523D0E03236
:10055A00EFD3940240037F0122EF60030205E8C251
:10056A008C90000212003FB40104D2A98002C2A9F1
:10057A0090000112003FB40104D2B98002C2B9123C
:10058A000026FED3940340037F0222E58954FC4EE1
:10059A00F58990000312003FFFB40103538E7FEFE9
:1005AA007003438E80EFB4020543890480035389A4
:1005BA00FB90000412003FB40105438F01800353EE
:1005CA008FFE90000512006CFDACF0ECF58C8D8A64
:1005DA0090000712003FB40102D28C7F00227F02F2
:0105EA0022EE
:10077C001207CB1207487FD01208571207EC120849
:10078C0041D2AFE524B4E80FE523B4030AE4F52322
:0B079C00F524AF26120006C29380E88F
:0F0857007DA57C06ED1D70011C144C70F7DFF1C0
:01086600226F
:0603C0008B158A16891757
:1003C600EF64016003020557751C01F51DF51EF566
:1003D6001FF520F521F5227F28784FE4F608DFFC8B
:1003E6007F287827E4F608DFFCAB15AA16A91712B2
:1003F6000026D394C040037F012290000A12003FDA
:10040600B40104D2BC8002C2BC120026FFE5985497
:100416003F4FF598EF64C06008EF64406003020444
:10042600DB9000021201967F007E607D547C0012F4
:1004360000E08F1B8E1A8D198C18E4FFFE7D01FCDF
:10044600AB1BAA1AA919A818C312017240037F028E
:1004560022C3E4951BF51BE4951AF51A7401951948
:10046600F519E49518F518AB15AA16A91790000109
:1004760012003FFB6401702CC28E538EFE5389BF5F
:100486005389CF438E40AF1BAE1AAD19AC1878080E
:100496001201838F8D851B8BC2AB5389BF538FFD92
:1004A600D28E8065EB64027029538EEF438E015322
:1004B6008EF7438E04AF1BAE1AAD19AC187808122E
:1004C60001838FD6851BD753AFFB538EF7438E1010
:1004D60080377F0222AB15AA16A917120026FF70D5
:1004E6001390000812003FB40105438E20801A5372
:1004F6008EDF8015EFB4801190000812003FB40122
:1005060005438780800353877FAB15AA16A91790EA
:10051600000912003FB40104D2AC8002C2AC9000C4
:100526000712003FB40104D29C8002C29C90000BCB
:1005360012003F54C0FFE5A2543F4FF5A290000CB5
:1005460012003FB4010543971080035397EF7F00D5
:03055600227F03FE
:01055900227F
:10080900744F251EF8A607051EE51EC3942840034C
:0D081900E4F51EE51F7005751F01D2992240
:10000E00120026FF600C120809740129F9E43AFA6D
:03001E0080EE224F
:030023000206775B
:10067700C0E0C0D075D000C000C00730981DC29838
:10068700E5227017E520C394284003752000AF20AA
:10069700052074272FF8A699752105309921C2994D
:1006A700E51D651E6016744F251DF8E6F599051DB5
:1006B700E51DC394284008751D008003751F00D0F1
:0806C70007D000D0D0D0E032D2
:030000000205EB0B
:0C05EB00787FE4F6D8FD758176020632B8
:10002600BB010689828A83E0225002E722BBFE02D8
:09003600E32289828A83E493220B
:10003F00BB010CE58229F582E5833AF583E0225076
:10004F0006E92582F8E622BBFE06E92582F8E222C0
:0D005F00E58229F582E5833AF583E49322DA
:10006C00BB0110E58229F582E5833AF583E0F5F0D2
:10007C00A3E0225009E92582F886F008E622BBFEAF
:10008C000AE92582F8E2F5F008E222E5832AF583F5
:08009C00E993F5F0A3E99322BA
:1000A40075F008758200EF2FFFEE33FECD33CDCC13
:1000B40033CCC58233C5829BED9AEC99E582984096
:1000C4000CF582EE9BFEED9AFDEC99FC0FD5F0D673
:1000D400E4CEFBE4CDFAE4CCF9A88222B800C1B99D
:1000E4000059BA002DEC8BF084CFCECDFCE5F0CBDB
:1000F400F97818EF2FFFEE33FEED33FDEC33FCEB14
:1001040033FB10D703994004EB99FB0FD8E5E4F9CE
:10011400FA227818EF2FFFEE33FEED33FDEC33FCBB
:10012400C933C910D7059BE99A4007EC9BFCE99AAF
:10013400F90FD8E0E4C9FAE4CCFB2275F010EF2FF4
:10014400FFEE33FEED33FDCC33CCC833C810D707F4
:100154009BEC9AE899400AED9BFDEC9AFCE899F82F
:0E0164000FD5F0DAE4CDFBE4CCFAE4C8F922C2
:10017200EB9FF5F0EA9E42F0E99D42F0E89C45F0E3
:01018200225A
:10018300E8600FECC313FCED13FDEE13FEEF13FF5A
:03019300D8F1227E
:10019600BB010DE58229F582E5833AF5830201D399
:1001A6005007E92582F80201C6BBFE07E92582F859
:1001B6000201DFE58229F582E5833AF5830201EC47
:1005F70002077CE493A3F8E493A34003F68001F297
:1006070008DFF48029E493A3F85407240CC8C33304
:10061700C4540F4420C8834004F456800146F6DFD3
:10062700E4800B0102040810204080900874E47EE7
:10063700019360BCA3FF543F30E509541FFEE493C8
:10064700A360010ECF54C025E060A840B8E493A38F
:10065700FAE493A3F8E493A3C8C582C8CAC583CABA
:10066700F0A3C8C582C8CAC583CADFE9DEE780BE72
:01087C00007B
:0D01C600E6FB08E6F908E6FA08E6CBF822A9
:0C01D300E0F8A3E0F9A3E0FAA3E0FB22AF
:0D01DF00E2FB08E2F908E2FA08E2CBF822A0
:1001EC00E493F8740193F9740293FA740393FB2269
:00000001FF
