:10025F00EFD3940540037F0122120026FED39403AF
:10026F0040037F0222EF7041EE700B9000011200ED
:10027F003FF452935294120026B4010B90000112D6
:10028F00003F4293F45294120026FEB4020A9000EB
:10029F000112003F42934294EEB4030D90000112FD
:1002AF00003FFEF45293EE4294EF6401704312004C
:1002BF0026FE700B90000112003FF452915292EE05
:1002CF00B4010B90000112003F4291F452921200C0
:1002DF0026B4020A90000112003F4291429212008E
:1002EF0026B4030D90000112003FFEF45291EE422E
:1002FF0092EF64027043120026FE700B9000011201
:10030F00003FF452955296EEB4010B90000112008B
:10031F003F4295F45296120026B4020A9000011241
:10032F00003F42954296120026B4030D9000011231
:10033F00003FFEF45295EE4296EF640370431200B5
:10034F0026FE700B90000112003FF452B152B2EE34
:10035F00B4010B90000112003F42B1F452B21200EF
:10036F0026B4020A90000112003F42B142B21200BD
:10037F0026B4030D90000112003FFEF452B1EE427D
:10038F00B2EF64047043120026FE700B900001124E
:10039F00003FF452B352B4EEB4010B9000011200BF
:1003AF003F42B3F452B4120026B4020A9000011275
:1003BF00003F42B342B4120026B4030D9000011265
:1003CF00003FFEF452B3EE42B4EF640570431200E7
:1003DF0026FF700B90000112003FF452C952CAEF72
:1003EF00B4010B90000112003F42C9F452CA12002F
:1003FF0026B4020A90000112003F42C942CA1200FD
:10040F0026B4030D90000112003FFFF452C9EF42D2
:04041F00CA7F00226E
:10076500535443313546324B36305332205541527E
:10077500543120546573742050726772616D6D65D4
:10078500210D0A004F504E756D3D312C2064657664
:100795004E756D3D780D0A004F504E756D3D322CEE
:1007A500206465764E756D3D782C20646174613DDD
:1007B500004F504E756D3D332C206465764E756D3A
:1007C5003D782C20D2D1B9D8B5C60D0A004F504E70
:1007D500756D3D332C206465764E756D3D782C2006
:0907E500D2D1BFAAB5C60D0A006D
:08092F0002280000022600006E
:1008B700750C04E4F50BFB7A00790B7F0312025FDA
:1008C700750CFF750B037B007A00790B7F01020221
:0108D7005FC1
:1008D800E4F50BF50C750D01F50EF50F751070F5B7
:0D08E80011751201FB7A00790BFF0205BDAE
:10088300750B40750C02751000750FC2750E01755E
:100893000D00751201E4F513751401F515F516F540
:1008A30017FB7A00790B7F011204237BFF7A077908
:0408B3006502000ECC
:03000B00020922C5
:0D092200C0E00527E52770020526D0E03271
:1005BD00EFD3940240037F0122EF600302064BC28A
:1005CD008C90000212003FB40104D2A98002C2A98E
:1005DD0090000112003FB40104D2B98002C2B912D9
:1005ED000026FED3940340037F0222E58954FC4E7E
:1005FD00F58990000312003FFFB40103538E7FEF86
:10060D007003438E80EFB402054389048003538940
:10061D00FB90000412003FB40105438F018003538A
:10062D008FFE90000512006CFDACF0ECF58C8D8A00
:10063D0090000712003FB40102D28C7F00227F028E
:01064D00228A
:1006DA008B0B8A0C890D90000112003FFF640160A8
:1006EA000AEF64026005EF6403706DEFB401097BE1
:1006FA00FF7A07798912000EAB0BAA0CA90D90009C
:10070A000112003FB402097BFF7A07799D12000E9D
:10071A00AB0BAA0CA90D90000112003F64037035BF
:10072A00E92404F9E43A49700D7BFF7A0779B61295
:10073A00000ED293801FE50D2404F9E4350CFEE97E
:10074A0064014E700D7BFF7A0779D212000EC293B4
:0B075A0080037F02227F01227F00222B
:100846001208B71208837FD01209121208D8D2AF45
:10085600C291C2B230B21B7F0A12091230B210AB7B
:1008660008AA09A90A900008E475F0011200A4205C
:0D087600B2FDAB08AA09A90A1206DA80D764
:0F0912007DA57C06ED1D70011C144C70F7DFF104
:0109210022B3
:060423008B188A19891AEA
:10042900EF640160030205BA751F01F520F521F596
:1004390022F523F524F5257F287852E4F608DFFC18
:100449007F28782AE4F608DFFCAB18AA19A91A1242
:100459000026D394C040037F012290000A12003F76
:10046900B40104D2BC8002C2BC120026FFE5985434
:100479003F4FF598EF64C06008EF644060030205E0
:100489003E9000021201E37F007E607D547C0012E1
:10049900012D8F1E8E1D8D1C8C1BE4FFFE7D01FC22
:1004A900AB1EAA1DA91CA81BC31201BF40037F02D2
:1004B90022C3E4951EF51EE4951DF51D7401951CD6
:1004C900F51CE4951BF51BAB18AA19A91A90000194
:1004D90012003FFB6401702CC28E538EFE5389BFFC
:1004E9005389CF438E40AF1EAE1DAD1CAC1B78089F
:1004F9001201D08F8D851E8BC2AB5389BF538FFDDF
:10050900D28E8065EB64027029538EEF438E0153BE
:100519008EF7438E04AF1EAE1DAD1CAC1B780812BE
:1005290001D08FD6851ED753AFFB538EF7438E105C
:1005390080377F0222AB18AA19A91A120026FF7068
:100549001390000812003FB40105438E20801A530E
:100559008EDF8015EFB4801190000812003FB401BE
:1005690005438780800353877FAB18AA19A91A907E
:10057900000912003FB40104D2AC8002C2AC900061
:100589000712003FB40104D29C8002C29C90000B68
:1005990012003F54C0FFE5A2543F4FF5A290000C52
:1005A90012003FB4010543971080035397EF7F0072
:0305B900227F039B
:0105BC00221C
:1008F50074522521F8A6070521E521C39428400354
:0D090500E4F521E5227005752201D299224A
:10000E00120026FF600C1208F5740129F9E43AFA81
:03001E0080EE224F
:030023000207EEE3
:1007EE00C0E0C0D075D000C000C00730981DC298C0
:1007FE00E5257017E523C394284003752300AF2326
:10080E000523742A2FF8A699752405309921C299CB
:10081E00E5206521601674522520F8E6F59905202D
:10082E00E520C3942840087520008003752200D06F
:08083E0007D000D0D0D0E03259
:0300000002064EA7
:0C064E00787FE4F6D8FD758179020695EE
:10002600BB010689828A83E0225002E722BBFE02D8
:09003600E32289828A83E493220B
:10003F00BB010CE58229F582E5833AF583E0225076
:10004F0006E92582F8E622BBFE06E92582F8E222C0
:0D005F00E58229F582E5833AF583E49322DA
:10006C00BB0110E58229F582E5833AF583E0F5F0D2
:10007C00A3E0225009E92582F886F008E622BBFEAF
:10008C000AE92582F8E2F5F008E222E5832AF583F5
:08009C00E993F5F0A3E99322BA
:1000A400BB010DC58229C582C5833AC583020213EB
:1000B4005011C58229F808E5F026F618F5F0E58216
:1000C40036F622BBFE11C58229F808E225F0F5F0C8
:1000D400F218E23582F222F8E58229F582E5832AD4
:0D00E400F58374019325F0F5F0E4933822C4
:1000F10075F008758200EF2FFFEE33FECD33CDCCC6
:1001010033CCC58233C5829BED9AEC99E582984048
:100111000CF582EE9BFEED9AFDEC99FC0FD5F0D625
:10012100E4CEFBE4CDFAE4CCF9A88222B800C1B94F
:100131000059BA002DEC8BF084CFCECDFCE5F0CB8D
:10014100F97818EF2FFFEE33FEED33FDEC33FCEBC6
:1001510033FB10D703994004EB99FB0FD8E5E4F981
:10016100FA227818EF2FFFEE33FEED33FDEC33FC6E
:10017100C933C910D7059BE99A4007EC9BFCE99A62
:10018100F90FD8E0E4C9FAE4CCFB2275F010EF2FA7
:10019100FFEE33FEED33FDCC33CCC833C810D707A7
:1001A1009BEC9AE899400AED9BFDEC9AFCE899F8E2
:0E01B1000FD5F0DAE4CDFBE4CCFAE4C8F92275
:1001BF00EB9FF5F0EA9E42F0E99D42F0E89C45F096
:0101CF00220D
:1001D000E8600FECC313FCED13FDEE13FEEF13FF0D
:0301E000D8F12231
:1001E300BB010DE58229F582E5833AF583020236E8
:1001F3005007E92582F8020229BBFE07E92582F8A8
:10020300020242E58229F582E5833AF58302024F31
:10065A00020846E493A3F8E493A34003F68001F268
:10066A0008DFF48029E493A3F85407240CC8C333A1
:10067A00C4540F4420C8834004F456800146F6DF70
:10068A00E4800B010204081020408090092FE47EC8
:10069A00019360BCA3FF543F30E509541FFEE49365
:1006AA00A360010ECF54C025E060A840B8E493A32C
:1006BA00FAE493A3F8E493A3C8C582C8CAC583CA57
:1006CA00F0A3C8C582C8CAC583CADFE9DEE780BE0F
:0109370000BF
:10021300C5F0F8A3E028F0C5F0F8E5821582700276
:060223001583E038F02213
:0D022900E6FB08E6F908E6FA08E6CBF82245
:0C023600E0F8A3E0F9A3E0FAA3E0FB224B
:0D024200E2FB08E2F908E2FA08E2CBF8223C
:10024F00E493F8740193F9740293FA740393FB2205
:00000001FF
